:020000040800F2
:1000000008100020890100080D03000819030008EA
:100010002103000829030008310300080000000044
:10002000000000000000000000000000390300088C
:100030004503000800000000510300085D030008AC
:10004000F9010008F9010008F9010008F9010008A8
:10005000F9010008F9010008F9010008F901000898
:10006000F9010008F9010008F9010008F901000888
:10007000F9010008F9010008F9010008F901000878
:10008000F9010008F9010008F9010008F901000868
:10009000F9010008F9010008F9010008F901000858
:1000A000F9010008F9010008F9010008F901000848
:1000B000F9010008F9010008F9010008F901000838
:1000C000F9010008F9010008F9010008F901000828
:1000D000F9010008F9010008F9010008F901000818
:1000E000F9010008F9010008F9010008F901000808
:1000F000F9010008F9010008F9010008F9010008F8
:10010000F9010008F9010008F9010008F9010008E7
:10011000F9010008F9010008F9010008F9010008D7
:10012000F9010008F9010008F9010008F9010008C7
:10013000F9010008F9010008F9010008F9010008B7
:10014000F9010008F9010008F9010008F9010008A7
:10015000F9010008F9010008F9010008F901000897
:10016000F9010008F9010008F9010008F901000887
:10017000F9010008F9010008F9010008F901000877
:10018000F9010008F901000880B582B000AF00F065
:1001900041FA134B7B60134B3B6007E03B681A1D31
:1001A0003A607A68111D796012681A603A680E4BDD
:1001B0009A42F3D30D480E494FF000028842B8BF6F
:1001C00040F8042BFFF6FAAFDFF82800016841F48D
:1001D0007001016000F014F80837BD4680BD00BF13
:1001E0007007000800000020000000200000002030
:1001F0000800002088ED00E080B400AFFEE700BFFB
:1002000080B582B000AF00F041F900F0ADF81C48B5
:100210004FF4805100F0D0F919484FF4C04100F07C
:10022000CBF9174B4FF400421A8315484FF4805115
:1002300000F0D0F9124B4FF400525A8310484FF49B
:10024000804100F0D5F90E4B0D4A526982F400420C
:100250005A610023FB714FF4FA709FED0A0A00F017
:1002600013F8FB791846002100F0B8F8FB79013348
:10027000FB71FB79092B02D90023FB71EBE7EAE75D
:10028000000C02405F554A4680B485B000AF7860EC
:1002900087ED000A7B6807EE903AB8EE677AD7EDF3
:1002A000007A67EE277AFCEEE77A17EE903ABB60A9
:1002B0000023FB6002E0FB680133FB60FA68BB6867
:1002C0009A42F8D31437BD465DF8047B704700BFEF
:1002D00080B483B000AF78600B46FB70FB78002BD6
:1002E00006D0094B084A116B7A680A431A6306E084
:1002F000054B054A116B7A68D2430A401A630C37E2
:10030000BD465DF8047B70470038024080B400AF02
:10031000BD465DF8047B704780B400AFFEE700BFC8
:1003200080B400AFFEE700BF80B400AFFEE700BFBF
:1003300080B400AFFEE700BF80B400AFBD465DF8FB
:10034000047B704780B400AFBD465DF8047B704706
:1003500080B400AFBD465DF8047B704780B400AF49
:10036000BD465DF8047B704780B500AF184B4FF475
:1003700070421A60164B01221A71154B00229A71B5
:10038000134B02225A711348114900F087F8104BA1
:10039000FF221A600E4B01221A710D4B00229A7136
:1003A0000B4B02225A710B48094900F077F8084BB1
:1003B00001221A60064B00221A71054B0022DA71E5
:1003C000034B02225A710448014900F067F880BDCE
:1003D00000000020000C02400000024080B584B004
:1003E00000AF02460B46FA71BB71FB79002B02D1BC
:1003F0003F23FB8134E0FB79012B02D10623FB81F3
:100400002EE0FB79022B02D15B23FB8128E0FB79F4
:10041000032B02D14F23FB8122E0FB79042B02D175
:100420006623FB811CE0FB79052B02D16D23FB8148
:1004300016E0FB79062B02D17D23FB8110E0FB79CE
:10044000072B02D10723FB810AE0FB79082B02D19D
:100450007F23FB8104E0FB79092B01D16F23FB8112
:10046000BB79002B03D0FB8943F08003FB81064856
:100470007F2100F0AFF8FB890348194600F09CF893
:100480001037BD4680BD00BF000C024080B500AFF4
:100490001F200121FFF71CFF80BD00BF80B487B083
:1004A00000AF7860396000237B6100233B6100234B
:1004B000FB6000237B6176E07B69012202FA03F393
:1004C0003B613B681A683B691340FB60FA683B6913
:1004D0009A4265D17B681A687B695B00032101FA47
:1004E00003F3DB431A407B681A607B681A683B6839
:1004F0001B7919467B695B0001FA03F31A437B6899
:100500001A603B681B79012B03D03B681B79022BD7
:100510002ED17B689A687B695B00032101FA03F3A3
:10052000DB431A407B689A607B689A683B685B791A
:1005300019467B695B0001FA03F31A437B689A60F2
:100540007B685A687B699BB2012101FA03F3DB43A4
:100550001A407B685A607B685A683B689B791946E9
:100560007B699BB201FA03F39BB21A437B685A6022
:100570007B68DA687B699BB25B00032101FA03F3B5
:10058000DB431A407B68DA607B68DA683B68DB79BA
:1005900019467B695B0001FA03F31A437B68DA6052
:1005A0007B6901337B617B690F2B85D91C37BD4685
:1005B0005DF8047B704700BF80B483B000AF786003
:1005C0000B467B807B687A881A830C37BD465DF8C2
:1005D000047B704780B483B000AF78600B467B80AB
:1005E0007B687A885A830C37BD465DF8047B704778
:1005F00080B483B000AF78600B467B807B685A691B
:100600007B885A407B685A610C37BD465DF8047B95
:10061000704700BF80B500AF154B154AD2F888204F
:1006200042F47002C3F88820124B124A126842F05A
:1006300001021A600F4B00229A600E4A0D4B1B6894
:1006400023F0847323F4803313600A4B0A4A5A6000
:10065000084B084A126822F480221A60054B0022D7
:10066000DA6000F00BF8024B4FF000629A6080BD38
:1006700000ED00E0003802401030002480B483B068
:1006800000AF00237B6000233B60354B344A126887
:1006900042F480321A60324B1B6803F400333B6033
:1006A0007B6801337B603B68002B03D17B68B3F52B
:1006B000A06FF0D12A4B1B6803F40033002B02D04B
:1006C00001233B6001E000233B603B68012B42D1EA
:1006D000234B234A126C42F080521A64214B214A68
:1006E000126842F480421A601D4B1D4A92689A605B
:1006F0001B4B1B4A926842F400429A60184B184AFE
:10070000926842F4A0529A60154B174A5A60144BF3
:10071000134A126842F080721A6000BF104B1B68C7
:1007200003F00073002BF9D0104B40F205621A6001
:100730000B4B0B4A926822F003029A60084B084A5E
:10074000926842F002029A6000BF054B9B6803F07A
:100750000C03082BF9D10C37BD465DF8047B7047BC
:10076000003802400070004008544007003C02403E
:0400000508000000EF
:00000001FF
